{
  "_format": "hh-sol-artifact-1",
  "contractName": "I4TKNetwork",
  "sourceName": "contracts/I4TKnetwork.sol",
  "abi": [
    {
      "inputs": [
        {
          "internalType": "address",
          "name": "_I4TKdocTokenAddr",
          "type": "address"
        }
      ],
      "stateMutability": "nonpayable",
      "type": "constructor"
    },
    {
      "inputs": [],
      "name": "AccessControlBadConfirmation",
      "type": "error"
    },
    {
      "inputs": [
        {
          "internalType": "address",
          "name": "account",
          "type": "address"
        },
        {
          "internalType": "bytes32",
          "name": "neededRole",
          "type": "bytes32"
        }
      ],
      "name": "AccessControlUnauthorizedAccount",
      "type": "error"
    },
    {
      "inputs": [
        {
          "internalType": "uint256",
          "name": "wrongTokenId",
          "type": "uint256"
        }
      ],
      "name": "tokenInReferenceNotExistOrNotValidated",
      "type": "error"
    },
    {
      "anonymous": false,
      "inputs": [
        {
          "indexed": true,
          "internalType": "bytes32",
          "name": "role",
          "type": "bytes32"
        },
        {
          "indexed": true,
          "internalType": "bytes32",
          "name": "previousAdminRole",
          "type": "bytes32"
        },
        {
          "indexed": true,
          "internalType": "bytes32",
          "name": "newAdminRole",
          "type": "bytes32"
        }
      ],
      "name": "RoleAdminChanged",
      "type": "event"
    },
    {
      "anonymous": false,
      "inputs": [
        {
          "indexed": true,
          "internalType": "bytes32",
          "name": "role",
          "type": "bytes32"
        },
        {
          "indexed": true,
          "internalType": "address",
          "name": "account",
          "type": "address"
        },
        {
          "indexed": true,
          "internalType": "address",
          "name": "sender",
          "type": "address"
        }
      ],
      "name": "RoleGranted",
      "type": "event"
    },
    {
      "anonymous": false,
      "inputs": [
        {
          "indexed": true,
          "internalType": "bytes32",
          "name": "role",
          "type": "bytes32"
        },
        {
          "indexed": true,
          "internalType": "address",
          "name": "account",
          "type": "address"
        },
        {
          "indexed": true,
          "internalType": "address",
          "name": "sender",
          "type": "address"
        }
      ],
      "name": "RoleRevoked",
      "type": "event"
    },
    {
      "anonymous": false,
      "inputs": [
        {
          "indexed": true,
          "internalType": "address",
          "name": "creator",
          "type": "address"
        },
        {
          "indexed": true,
          "internalType": "uint256",
          "name": "tokenId",
          "type": "uint256"
        },
        {
          "indexed": false,
          "internalType": "string",
          "name": "tokenURI",
          "type": "string"
        },
        {
          "indexed": false,
          "internalType": "uint256",
          "name": "date",
          "type": "uint256"
        }
      ],
      "name": "contentProposed",
      "type": "event"
    },
    {
      "anonymous": false,
      "inputs": [
        {
          "indexed": true,
          "internalType": "address",
          "name": "creator",
          "type": "address"
        },
        {
          "indexed": true,
          "internalType": "uint256",
          "name": "tokenId",
          "type": "uint256"
        },
        {
          "indexed": false,
          "internalType": "string",
          "name": "tokenURI",
          "type": "string"
        },
        {
          "indexed": false,
          "internalType": "uint256",
          "name": "date",
          "type": "uint256"
        }
      ],
      "name": "contentPublished",
      "type": "event"
    },
    {
      "anonymous": false,
      "inputs": [
        {
          "indexed": true,
          "internalType": "address",
          "name": "validator",
          "type": "address"
        },
        {
          "indexed": true,
          "internalType": "uint256",
          "name": "tokenId",
          "type": "uint256"
        }
      ],
      "name": "contentValidation",
      "type": "event"
    },
    {
      "anonymous": false,
      "inputs": [
        {
          "indexed": false,
          "internalType": "address",
          "name": "addr",
          "type": "address"
        },
        {
          "indexed": false,
          "internalType": "enum I4TKNetwork.Profiles",
          "name": "profile",
          "type": "uint8"
        }
      ],
      "name": "memberRegistered",
      "type": "event"
    },
    {
      "anonymous": false,
      "inputs": [
        {
          "indexed": false,
          "internalType": "address",
          "name": "addr",
          "type": "address"
        }
      ],
      "name": "memberRevoked",
      "type": "event"
    },
    {
      "inputs": [],
      "name": "ADMIN_ROLE",
      "outputs": [
        {
          "internalType": "bytes32",
          "name": "",
          "type": "bytes32"
        }
      ],
      "stateMutability": "view",
      "type": "function"
    },
    {
      "inputs": [],
      "name": "CONTRIBUTOR_ROLE",
      "outputs": [
        {
          "internalType": "bytes32",
          "name": "",
          "type": "bytes32"
        }
      ],
      "stateMutability": "view",
      "type": "function"
    },
    {
      "inputs": [],
      "name": "DEFAULT_ADMIN_ROLE",
      "outputs": [
        {
          "internalType": "bytes32",
          "name": "",
          "type": "bytes32"
        }
      ],
      "stateMutability": "view",
      "type": "function"
    },
    {
      "inputs": [],
      "name": "I4TKdocTokenAddr",
      "outputs": [
        {
          "internalType": "address",
          "name": "",
          "type": "address"
        }
      ],
      "stateMutability": "view",
      "type": "function"
    },
    {
      "inputs": [
        {
          "internalType": "address",
          "name": "",
          "type": "address"
        }
      ],
      "name": "Members",
      "outputs": [
        {
          "internalType": "enum I4TKNetwork.Profiles",
          "name": "profile",
          "type": "uint8"
        },
        {
          "internalType": "bool",
          "name": "isMember",
          "type": "bool"
        }
      ],
      "stateMutability": "view",
      "type": "function"
    },
    {
      "inputs": [],
      "name": "VALIDATOR_ROLE",
      "outputs": [
        {
          "internalType": "bytes32",
          "name": "",
          "type": "bytes32"
        }
      ],
      "stateMutability": "view",
      "type": "function"
    },
    {
      "inputs": [
        {
          "internalType": "uint256",
          "name": "tokenId",
          "type": "uint256"
        },
        {
          "internalType": "address",
          "name": "addr",
          "type": "address"
        }
      ],
      "name": "contentValidator",
      "outputs": [
        {
          "internalType": "bool",
          "name": "",
          "type": "bool"
        }
      ],
      "stateMutability": "view",
      "type": "function"
    },
    {
      "inputs": [
        {
          "internalType": "address",
          "name": "addr",
          "type": "address"
        }
      ],
      "name": "getMemberProfile",
      "outputs": [
        {
          "internalType": "enum I4TKNetwork.Profiles",
          "name": "",
          "type": "uint8"
        }
      ],
      "stateMutability": "view",
      "type": "function"
    },
    {
      "inputs": [
        {
          "internalType": "string",
          "name": "profile",
          "type": "string"
        }
      ],
      "name": "getProfilesValueByKey",
      "outputs": [
        {
          "internalType": "enum I4TKNetwork.Profiles",
          "name": "",
          "type": "uint8"
        }
      ],
      "stateMutability": "pure",
      "type": "function"
    },
    {
      "inputs": [
        {
          "internalType": "bytes32",
          "name": "role",
          "type": "bytes32"
        }
      ],
      "name": "getRoleAdmin",
      "outputs": [
        {
          "internalType": "bytes32",
          "name": "",
          "type": "bytes32"
        }
      ],
      "stateMutability": "view",
      "type": "function"
    },
    {
      "inputs": [
        {
          "internalType": "bytes32",
          "name": "role",
          "type": "bytes32"
        },
        {
          "internalType": "address",
          "name": "account",
          "type": "address"
        }
      ],
      "name": "grantRole",
      "outputs": [],
      "stateMutability": "nonpayable",
      "type": "function"
    },
    {
      "inputs": [
        {
          "internalType": "bytes32",
          "name": "role",
          "type": "bytes32"
        },
        {
          "internalType": "address",
          "name": "account",
          "type": "address"
        }
      ],
      "name": "hasRole",
      "outputs": [
        {
          "internalType": "bool",
          "name": "",
          "type": "bool"
        }
      ],
      "stateMutability": "view",
      "type": "function"
    },
    {
      "inputs": [
        {
          "internalType": "uint256",
          "name": "tokenId",
          "type": "uint256"
        }
      ],
      "name": "nbValidation",
      "outputs": [
        {
          "internalType": "uint256",
          "name": "",
          "type": "uint256"
        }
      ],
      "stateMutability": "view",
      "type": "function"
    },
    {
      "inputs": [
        {
          "internalType": "address",
          "name": "",
          "type": "address"
        },
        {
          "internalType": "address",
          "name": "",
          "type": "address"
        },
        {
          "internalType": "uint256[]",
          "name": "",
          "type": "uint256[]"
        },
        {
          "internalType": "uint256[]",
          "name": "",
          "type": "uint256[]"
        },
        {
          "internalType": "bytes",
          "name": "",
          "type": "bytes"
        }
      ],
      "name": "onERC1155BatchReceived",
      "outputs": [
        {
          "internalType": "bytes4",
          "name": "",
          "type": "bytes4"
        }
      ],
      "stateMutability": "nonpayable",
      "type": "function"
    },
    {
      "inputs": [
        {
          "internalType": "address",
          "name": "",
          "type": "address"
        },
        {
          "internalType": "address",
          "name": "",
          "type": "address"
        },
        {
          "internalType": "uint256",
          "name": "",
          "type": "uint256"
        },
        {
          "internalType": "uint256",
          "name": "",
          "type": "uint256"
        },
        {
          "internalType": "bytes",
          "name": "",
          "type": "bytes"
        }
      ],
      "name": "onERC1155Received",
      "outputs": [
        {
          "internalType": "bytes4",
          "name": "",
          "type": "bytes4"
        }
      ],
      "stateMutability": "nonpayable",
      "type": "function"
    },
    {
      "inputs": [
        {
          "internalType": "string",
          "name": "tokenURI",
          "type": "string"
        },
        {
          "internalType": "uint256[]",
          "name": "references",
          "type": "uint256[]"
        }
      ],
      "name": "proposeContent",
      "outputs": [],
      "stateMutability": "nonpayable",
      "type": "function"
    },
    {
      "inputs": [
        {
          "internalType": "address",
          "name": "addr",
          "type": "address"
        },
        {
          "internalType": "enum I4TKNetwork.Profiles",
          "name": "profile",
          "type": "uint8"
        }
      ],
      "name": "registerMember",
      "outputs": [],
      "stateMutability": "nonpayable",
      "type": "function"
    },
    {
      "inputs": [
        {
          "internalType": "bytes32",
          "name": "role",
          "type": "bytes32"
        },
        {
          "internalType": "address",
          "name": "callerConfirmation",
          "type": "address"
        }
      ],
      "name": "renounceRole",
      "outputs": [],
      "stateMutability": "nonpayable",
      "type": "function"
    },
    {
      "inputs": [
        {
          "internalType": "address",
          "name": "addr",
          "type": "address"
        }
      ],
      "name": "revokeMember",
      "outputs": [],
      "stateMutability": "nonpayable",
      "type": "function"
    },
    {
      "inputs": [
        {
          "internalType": "bytes32",
          "name": "role",
          "type": "bytes32"
        },
        {
          "internalType": "address",
          "name": "account",
          "type": "address"
        }
      ],
      "name": "revokeRole",
      "outputs": [],
      "stateMutability": "nonpayable",
      "type": "function"
    },
    {
      "inputs": [
        {
          "internalType": "uint256",
          "name": "tokenId",
          "type": "uint256"
        }
      ],
      "name": "status",
      "outputs": [
        {
          "internalType": "enum I4TKNetwork.Status",
          "name": "",
          "type": "uint8"
        }
      ],
      "stateMutability": "view",
      "type": "function"
    },
    {
      "inputs": [
        {
          "internalType": "bytes4",
          "name": "interfaceId",
          "type": "bytes4"
        }
      ],
      "name": "supportsInterface",
      "outputs": [
        {
          "internalType": "bool",
          "name": "",
          "type": "bool"
        }
      ],
      "stateMutability": "view",
      "type": "function"
    },
    {
      "inputs": [
        {
          "internalType": "uint256",
          "name": "tokenId",
          "type": "uint256"
        }
      ],
      "name": "valideContent",
      "outputs": [],
      "stateMutability": "nonpayable",
      "type": "function"
    }
  ],
  "bytecode": "0x60806040523480156200001157600080fd5b50604051620020fc380380620020fc833981016040819052620000349162000200565b600180546001600160a01b0383166001600160a01b031991821681179092556002805490911690911790556200006c60003362000106565b5062000088600080516020620020dc8339815191523362000106565b50620000c47fe2889e7308860b3fe8df0daa86fccfea4d71e43776719a57be28cf90b6db81e9600080516020620020dc833981519152620001b5565b620000ff7f21702c8af46127c7fa207f89d0b0a8441bb32959a0ac7df790e9ab1a25c98926600080516020620020dc833981519152620001b5565b5062000232565b6000828152602081815260408083206001600160a01b038516845290915281205460ff16620001ab576000838152602081815260408083206001600160a01b03861684529091529020805460ff19166001179055620001623390565b6001600160a01b0316826001600160a01b0316847f2f8788117e7eff1d82e926ec794901d17c78024a50270940304540a733656f0d60405160405180910390a4506001620001af565b5060005b92915050565b600082815260208190526040808220600101805490849055905190918391839186917fbd79b86ffe0ab8e8776151514217cd7cacd52c909f66475c3af44e129f0b00ff9190a4505050565b6000602082840312156200021357600080fd5b81516001600160a01b03811681146200022b57600080fd5b9392505050565b611e9a80620002426000396000f3fe608060405234801561001057600080fd5b506004361061014d5760003560e01c806391d14854116100c3578063cca28f391161007c578063cca28f391461032a578063d547741f14610356578063e91ec28914610369578063eafb79e214610397578063f23a6e61146103ac578063fd0f0166146103cb57600080fd5b806391d148541461028f578063a217fddf146102a2578063a4cdb2eb146102aa578063bc197c81146102ca578063c2a6ceea14610302578063c49baebe1461031557600080fd5b806342d21ef71161011557806342d21ef7146101e6578063501b3d961461021657806372520eb314610229578063753be9da1461023c57806375b238fc146102675780638adf23b91461027c57600080fd5b806301ffc9a714610152578063248a9ca31461017a5780632f2ff15d146101ab57806336568abe146101c0578063398f332f146101d3575b600080fd5b610165610160366004611602565b610405565b60405190151581526020015b60405180910390f35b61019d610188366004611633565b60009081526020819052604090206001015490565b604051908152602001610171565b6101be6101b9366004611661565b610434565b005b6101be6101ce366004611661565b61045f565b6101be6101e1366004611691565b610497565b6102096101f4366004611633565b60056020526000908152604090205460ff1681565b60405161017191906116f7565b6102096102243660046117f8565b610696565b6101be6102373660046118c3565b6107ec565b60015461024f906001600160a01b031681565b6040516001600160a01b039091168152602001610171565b61019d600080516020611e4583398151915281565b6101be61028a366004611927565b610a34565b61016561029d366004611661565b610c1f565b61019d600081565b61019d6102b8366004611633565b60066020526000908152604090205481565b6102e96102d8366004611944565b63bc197c8160e01b95945050505050565b6040516001600160e01b03199091168152602001610171565b6101be610310366004611633565b610c48565b61019d600080516020611e0583398151915281565b610209610338366004611927565b6001600160a01b031660009081526004602052604090205460ff1690565b6101be610364366004611661565b610f89565b610165610377366004611661565b600360209081526000928352604080842090915290825290205460ff1681565b61019d600080516020611e2583398151915281565b6102e96103ba3660046119f2565b63f23a6e6160e01b95945050505050565b6103f76103d9366004611927565b60046020526000908152604090205460ff8082169161010090041682565b604051610171929190611a5b565b600061041082610fae565b8061041f575061041f82610fe3565b8061042e575061042e82610fe3565b92915050565b60008281526020819052604090206001015461044f81611008565b6104598383611015565b50505050565b6001600160a01b03811633146104885760405163334bd91960e11b815260040160405180910390fd5b61049282826110a7565b505050565b600080516020611e458339815191526104af81611008565b60018260038111156104c3576104c36116c3565b14806104e0575060028260038111156104de576104de6116c3565b145b806104fc575060038260038111156104fa576104fa6116c3565b145b61054d5760405162461bcd60e51b815260206004820152601c60248201527f50726f66696c65206e616d65206e6f74207265636f676e697a6564210000000060448201526064015b60405180910390fd5b6001826003811115610561576105616116c3565b0361057e5761057e600080516020611e2583398151915284610434565b6002826003811115610592576105926116c3565b036105c7576105af600080516020611e2583398151915284610434565b6105c7600080516020611e0583398151915284610434565b60038260038111156105db576105db6116c3565b036105f8576105f8600080516020611e4583398151915284610434565b6001600160a01b0383166000908152600460205260409020805483919060ff1916600183600381111561062d5761062d6116c3565b02179055506001600160a01b03831660009081526004602052604090819020805461ff001916610100179055517fd27989f63154cbe8ce720ef21b7f31d1d07a6e94b29a022d49639a85becf6ddb906106899085908590611a77565b60405180910390a1505050565b60007fe96834b01a6bf47fbae4355d6c26cad817096e121b8fd483c7cca90cc2303284826040516020016106ca9190611ac1565b60405160208183030381529060405280519060200120036106ed57506000919050565b7fdfdf2b841d0cbc21071a9d98f0c6e4896c80bf338d769ddf545f871d7af9ef118260405160200161071f9190611ac1565b604051602081830303815290604052805190602001200361074257506001919050565b7fb3dccd9c2b8d96551ac93fc8e340f12ce1b7e07d17a6bfb903ff8be1fc9020ee826040516020016107749190611ac1565b604051602081830303815290604052805190602001200361079757506002919050565b7ff23ec0bb4210edd5cba85afd05127efcd2fc6a781bfed49188da1081670b22d8826040516020016107c99190611ac1565b604051602081830303815290604052805190602001200361014d57506003919050565b600080516020611e2583398151915261080481611008565b60005b82518110156109345760025483516001600160a01b0390911690634f558e799085908490811061083957610839611add565b60200260200101516040518263ffffffff1660e01b815260040161085f91815260200190565b602060405180830381865afa15801561087c573d6000803e3d6000fd5b505050506040513d601f19601f820116820180604052508101906108a09190611af3565b15806108f157506001600560008584815181106108bf576108bf611add565b60209081029190910181015182528101919091526040016000205460ff1660038111156108ee576108ee6116c3565b14155b1561092c5782818151811061090857610908611add565b602002602001015160405163be08fef360e01b815260040161054491815260200190565b600101610807565b506002546040516320ae292960e11b815260609133916000916001600160a01b03169063415c5252906109719030908a908a908990600401611b41565b6020604051808303816000875af1158015610990573d6000803e3d6000fd5b505050506040513d601f19601f820116820180604052508101906109b49190611bbb565b600081815260066020908152604080832083905560058252808320805460ff191690556007909152908190204290819055905191925082916001600160a01b038516917f73fd17f3038f7fcdd2170ec929c45d42a6bff8be4b45ce8635e223bee552c15091610a24918b91611bd4565b60405180910390a3505050505050565b600080516020611e45833981519152610a4c81611008565b6001600160a01b038216600090815260046020526040902054610100900460ff16610aca5760405162461bcd60e51b815260206004820152602860248201527f43616e6e6f74207265766f6b652062656361757365206974206973206e6f7420604482015267309036b2b6b132b960c11b6064820152608401610544565b60016001600160a01b03831660009081526004602052604090205460ff166003811115610af957610af96116c3565b03610b1657610b16600080516020611e2583398151915283610f89565b60026001600160a01b03831660009081526004602052604090205460ff166003811115610b4557610b456116c3565b03610b7a57610b62600080516020611e2583398151915283610f89565b610b7a600080516020611e0583398151915283610f89565b60036001600160a01b03831660009081526004602052604090205460ff166003811115610ba957610ba96116c3565b03610bc657610bc6600080516020611e4583398151915283610f89565b6001600160a01b038216600081815260046020908152604091829020805461ffff1916905590519182527faa95fb5aedc03222fcf2dd8ba31854d07508a26bd0642ade4096458ef7244f6e910160405180910390a15050565b6000918252602082815260408084206001600160a01b0393909316845291905290205460ff1690565b600080516020611e05833981519152610c6081611008565b600082815260036020908152604080832033845290915290205460ff1615600114610cdd5760405162461bcd60e51b815260206004820152602760248201527f596f75206861766520616c72656164792076616c69646174656420746869732060448201526618dbdb9d195b9d60ca1b6064820152608401610544565b60025460405163934689a960e01b81526004810184905233916001600160a01b03169063934689a990602401602060405180830381865afa158015610d26573d6000803e3d6000fd5b505050506040513d601f19601f82011682018060405250810190610d4a9190611bf6565b6001600160a01b031603610dc65760405162461bcd60e51b815260206004820152603b60248201527f596f7520617265207468652063726561746f72206f662074686520636f6e746560448201527f6e742c20796f752063616e6e6f742076616c69646174652069742100000000006064820152608401610544565b6000828152600660205260408120805491610de083611c29565b909155505060008281526003602090815260408083203384528252808320805460ff191660011790558483526006909152902054600403610f5857610e2482611112565b60008281526005602052604090819020805460ff19166001179055600254905163934689a960e01b81526004810184905283916001600160a01b03169063934689a990602401602060405180830381865afa158015610e87573d6000803e3d6000fd5b505050506040513d601f19601f82011682018060405250810190610eab9190611bf6565b6002546040516303a24d0760e21b8152600481018690526001600160a01b03928316927fc2c866fdaaaed6d528c68aa7328658546a0474557529143e29b761080a95d3e6921690630e89341c90602401600060405180830381865afa158015610f18573d6000803e3d6000fd5b505050506040513d6000823e601f3d908101601f19168201604052610f409190810190611c42565b42604051610f4f929190611bd4565b60405180910390a35b604051829033907f658cda0e7f11dba2fc7189a9141b4545fba5661ac807d979aa633dcdf419fefe90600090a35050565b600082815260208190526040902060010154610fa481611008565b61045983836110a7565b60006001600160e01b03198216637965db0b60e01b148061042e57506301ffc9a760e01b6001600160e01b031983161461042e565b60006001600160e01b03198216630271189760e51b148061042e575061042e82610fae565b61101281336115a7565b50565b60006110218383610c1f565b61109f576000838152602081815260408083206001600160a01b03861684529091529020805460ff191660011790556110573390565b6001600160a01b0316826001600160a01b0316847f2f8788117e7eff1d82e926ec794901d17c78024a50270940304540a733656f0d60405160405180910390a450600161042e565b50600061042e565b60006110b38383610c1f565b1561109f576000838152602081815260408083206001600160a01b0386168085529252808320805460ff1916905551339286917ff6391f5c32d9c69d2a47ea670b442974b53935d1edc7fd64eb21e047a839171b9190a450600161042e565b600080516020611e0583398151915261112a81611008565b6002546040516338f0667560e01b8152600481018490526000916001600160a01b0316906338f0667590602401602060405180830381865afa158015611174573d6000803e3d6000fd5b505050506040513d601f19601f820116820180604052508101906111989190611bbb565b90506000808267ffffffffffffffff8111156111b6576111b661170a565b6040519080825280602002602001820160405280156111ef57816020015b6111dc6115e4565b8152602001906001900390816111d45790505b5060025460405163dbcad3c760e01b8152600481018890529192506001600160a01b03169063dbcad3c790602401600060405180830381865afa15801561123a573d6000803e3d6000fd5b505050506040513d6000823e601f3d908101601f191682016040526112629190810190611cb9565b600254604051627eeac760e11b8152306004820152602481018890529192506000916001600160a01b039091169062fdd58e90604401602060405180830381865afa1580156112b5573d6000803e3d6000fd5b505050506040513d601f19601f820116820180604052508101906112d99190611bbb565b905060005b825181101561144c5760008382815181106112fb576112fb611add565b602002602001015160006002811061131557611315611add565b602002015160025460405163934689a960e01b8152600481018390529192506001600160a01b03169063934689a990602401602060405180830381865afa158015611364573d6000803e3d6000fd5b505050506040513d601f19601f820116820180604052508101906113889190611bf6565b94506000620f42408584815181106113a2576113a2611add565b60200260200101516001600281106113bc576113bc611add565b60200201516113cb9086611d93565b6113d59190611daa565b600254604051637921219560e11b81529192506001600160a01b03169063f242432a9061140c9030908a908e908790600401611dcc565b600060405180830381600087803b15801561142657600080fd5b505af115801561143a573d6000803e3d6000fd5b5050600190940193506112de92505050565b50600254604051627eeac760e11b8152306004820152602481018890526000916001600160a01b03169062fdd58e90604401602060405180830381865afa15801561149b573d6000803e3d6000fd5b505050506040513d601f19601f820116820180604052508101906114bf9190611bbb565b60025460405163934689a960e01b8152600481018a90529192506001600160a01b03169063934689a990602401602060405180830381865afa158015611509573d6000803e3d6000fd5b505050506040513d601f19601f8201168201806040525081019061152d9190611bf6565b9350801561159e57600254604051637921219560e11b81526001600160a01b039091169063f242432a9061156b90309088908c908790600401611dcc565b600060405180830381600087803b15801561158557600080fd5b505af1158015611599573d6000803e3d6000fd5b505050505b50505050505050565b6115b18282610c1f565b6115e05760405163e2517d3f60e01b81526001600160a01b038216600482015260248101839052604401610544565b5050565b60405180604001604052806002906020820280368337509192915050565b60006020828403121561161457600080fd5b81356001600160e01b03198116811461162c57600080fd5b9392505050565b60006020828403121561164557600080fd5b5035919050565b6001600160a01b038116811461101257600080fd5b6000806040838503121561167457600080fd5b8235915060208301356116868161164c565b809150509250929050565b600080604083850312156116a457600080fd5b82356116af8161164c565b915060208301356004811061168657600080fd5b634e487b7160e01b600052602160045260246000fd5b6004811061101257634e487b7160e01b600052602160045260246000fd5b60208101611704836116d9565b91905290565b634e487b7160e01b600052604160045260246000fd5b6040805190810167ffffffffffffffff811182821017156117435761174361170a565b60405290565b604051601f8201601f1916810167ffffffffffffffff811182821017156117725761177261170a565b604052919050565b600067ffffffffffffffff8211156117945761179461170a565b50601f01601f191660200190565b600082601f8301126117b357600080fd5b81356117c66117c18261177a565b611749565b8181528460208386010111156117db57600080fd5b816020850160208301376000918101602001919091529392505050565b60006020828403121561180a57600080fd5b813567ffffffffffffffff81111561182157600080fd5b61182d848285016117a2565b949350505050565b600067ffffffffffffffff82111561184f5761184f61170a565b5060051b60200190565b600082601f83011261186a57600080fd5b8135602061187a6117c183611835565b8083825260208201915060208460051b87010193508684111561189c57600080fd5b602086015b848110156118b857803583529183019183016118a1565b509695505050505050565b600080604083850312156118d657600080fd5b823567ffffffffffffffff808211156118ee57600080fd5b6118fa868387016117a2565b9350602085013591508082111561191057600080fd5b5061191d85828601611859565b9150509250929050565b60006020828403121561193957600080fd5b813561162c8161164c565b600080600080600060a0868803121561195c57600080fd5b85356119678161164c565b945060208601356119778161164c565b9350604086013567ffffffffffffffff8082111561199457600080fd5b6119a089838a01611859565b945060608801359150808211156119b657600080fd5b6119c289838a01611859565b935060808801359150808211156119d857600080fd5b506119e5888289016117a2565b9150509295509295909350565b600080600080600060a08688031215611a0a57600080fd5b8535611a158161164c565b94506020860135611a258161164c565b93506040860135925060608601359150608086013567ffffffffffffffff811115611a4f57600080fd5b6119e5888289016117a2565b60408101611a68846116d9565b92815290151560209091015290565b6001600160a01b038316815260408101611a90836116d9565b8260208301529392505050565b60005b83811015611ab8578181015183820152602001611aa0565b50506000910152565b60008251611ad3818460208701611a9d565b9190910192915050565b634e487b7160e01b600052603260045260246000fd5b600060208284031215611b0557600080fd5b8151801515811461162c57600080fd5b60008151808452611b2d816020860160208601611a9d565b601f01601f19169290920160200192915050565b6001600160a01b038516815260806020808301829052600091611b6690840187611b15565b83810360408501528551808252602080880192019060005b81811015611b9a57835183529284019291840191600101611b7e565b50508481036060860152611bae8187611b15565b9998505050505050505050565b600060208284031215611bcd57600080fd5b5051919050565b604081526000611be76040830185611b15565b90508260208301529392505050565b600060208284031215611c0857600080fd5b815161162c8161164c565b634e487b7160e01b600052601160045260246000fd5b600060018201611c3b57611c3b611c13565b5060010190565b600060208284031215611c5457600080fd5b815167ffffffffffffffff811115611c6b57600080fd5b8201601f81018413611c7c57600080fd5b8051611c8a6117c18261177a565b818152856020838501011115611c9f57600080fd5b611cb0826020830160208601611a9d565b95945050505050565b60006020808385031215611ccc57600080fd5b825167ffffffffffffffff811115611ce357600080fd5b8301601f8082018613611cf557600080fd5b8151611d036117c182611835565b81815260069190911b83018401908481019088831115611d2257600080fd5b938501935b82851015611d87578884860112611d3e5760008081fd5b611d46611720565b80604087018b811115611d595760008081fd5b875b81811015611d725780518452928901928901611d5b565b50508352506040949094019390850190611d27565b98975050505050505050565b808202811582820484141761042e5761042e611c13565b600082611dc757634e487b7160e01b600052601260045260246000fd5b500490565b6001600160a01b0394851681529290931660208301526040820152606081019190915260a06080820181905260009082015260c0019056fe21702c8af46127c7fa207f89d0b0a8441bb32959a0ac7df790e9ab1a25c98926e2889e7308860b3fe8df0daa86fccfea4d71e43776719a57be28cf90b6db81e9a49807205ce4d355092ef5a8a18f56e8913cf4a201fbe287825b095693c21775a2646970667358221220899539a24c7f7d87c4c82f2f070a5f76e2bba8bdb3c01100843739a89261d1db64736f6c63430008180033a49807205ce4d355092ef5a8a18f56e8913cf4a201fbe287825b095693c21775",
  "linkReferences": {},
  "deployedLinkReferences": {}
}