{
  "_format": "hh-sol-artifact-1",
  "contractName": "I4TKdocToken",
  "sourceName": "contracts/I4TKdocToken.sol",
  "abi": [
    {
      "inputs": [],
      "stateMutability": "nonpayable",
      "type": "constructor"
    },
    {
      "inputs": [],
      "name": "AccessControlBadConfirmation",
      "type": "error"
    },
    {
      "inputs": [
        {
          "internalType": "address",
          "name": "account",
          "type": "address"
        },
        {
          "internalType": "bytes32",
          "name": "neededRole",
          "type": "bytes32"
        }
      ],
      "name": "AccessControlUnauthorizedAccount",
      "type": "error"
    },
    {
      "inputs": [
        {
          "internalType": "address",
          "name": "sender",
          "type": "address"
        },
        {
          "internalType": "uint256",
          "name": "balance",
          "type": "uint256"
        },
        {
          "internalType": "uint256",
          "name": "needed",
          "type": "uint256"
        },
        {
          "internalType": "uint256",
          "name": "tokenId",
          "type": "uint256"
        }
      ],
      "name": "ERC1155InsufficientBalance",
      "type": "error"
    },
    {
      "inputs": [
        {
          "internalType": "address",
          "name": "approver",
          "type": "address"
        }
      ],
      "name": "ERC1155InvalidApprover",
      "type": "error"
    },
    {
      "inputs": [
        {
          "internalType": "uint256",
          "name": "idsLength",
          "type": "uint256"
        },
        {
          "internalType": "uint256",
          "name": "valuesLength",
          "type": "uint256"
        }
      ],
      "name": "ERC1155InvalidArrayLength",
      "type": "error"
    },
    {
      "inputs": [
        {
          "internalType": "address",
          "name": "operator",
          "type": "address"
        }
      ],
      "name": "ERC1155InvalidOperator",
      "type": "error"
    },
    {
      "inputs": [
        {
          "internalType": "address",
          "name": "receiver",
          "type": "address"
        }
      ],
      "name": "ERC1155InvalidReceiver",
      "type": "error"
    },
    {
      "inputs": [
        {
          "internalType": "address",
          "name": "sender",
          "type": "address"
        }
      ],
      "name": "ERC1155InvalidSender",
      "type": "error"
    },
    {
      "inputs": [
        {
          "internalType": "address",
          "name": "operator",
          "type": "address"
        },
        {
          "internalType": "address",
          "name": "owner",
          "type": "address"
        }
      ],
      "name": "ERC1155MissingApprovalForAll",
      "type": "error"
    },
    {
      "anonymous": false,
      "inputs": [
        {
          "indexed": true,
          "internalType": "address",
          "name": "account",
          "type": "address"
        },
        {
          "indexed": true,
          "internalType": "address",
          "name": "operator",
          "type": "address"
        },
        {
          "indexed": false,
          "internalType": "bool",
          "name": "approved",
          "type": "bool"
        }
      ],
      "name": "ApprovalForAll",
      "type": "event"
    },
    {
      "anonymous": false,
      "inputs": [
        {
          "indexed": true,
          "internalType": "bytes32",
          "name": "role",
          "type": "bytes32"
        },
        {
          "indexed": true,
          "internalType": "bytes32",
          "name": "previousAdminRole",
          "type": "bytes32"
        },
        {
          "indexed": true,
          "internalType": "bytes32",
          "name": "newAdminRole",
          "type": "bytes32"
        }
      ],
      "name": "RoleAdminChanged",
      "type": "event"
    },
    {
      "anonymous": false,
      "inputs": [
        {
          "indexed": true,
          "internalType": "bytes32",
          "name": "role",
          "type": "bytes32"
        },
        {
          "indexed": true,
          "internalType": "address",
          "name": "account",
          "type": "address"
        },
        {
          "indexed": true,
          "internalType": "address",
          "name": "sender",
          "type": "address"
        }
      ],
      "name": "RoleGranted",
      "type": "event"
    },
    {
      "anonymous": false,
      "inputs": [
        {
          "indexed": true,
          "internalType": "bytes32",
          "name": "role",
          "type": "bytes32"
        },
        {
          "indexed": true,
          "internalType": "address",
          "name": "account",
          "type": "address"
        },
        {
          "indexed": true,
          "internalType": "address",
          "name": "sender",
          "type": "address"
        }
      ],
      "name": "RoleRevoked",
      "type": "event"
    },
    {
      "anonymous": false,
      "inputs": [
        {
          "indexed": true,
          "internalType": "address",
          "name": "operator",
          "type": "address"
        },
        {
          "indexed": true,
          "internalType": "address",
          "name": "from",
          "type": "address"
        },
        {
          "indexed": true,
          "internalType": "address",
          "name": "to",
          "type": "address"
        },
        {
          "indexed": false,
          "internalType": "uint256[]",
          "name": "ids",
          "type": "uint256[]"
        },
        {
          "indexed": false,
          "internalType": "uint256[]",
          "name": "values",
          "type": "uint256[]"
        }
      ],
      "name": "TransferBatch",
      "type": "event"
    },
    {
      "anonymous": false,
      "inputs": [
        {
          "indexed": true,
          "internalType": "address",
          "name": "operator",
          "type": "address"
        },
        {
          "indexed": true,
          "internalType": "address",
          "name": "from",
          "type": "address"
        },
        {
          "indexed": true,
          "internalType": "address",
          "name": "to",
          "type": "address"
        },
        {
          "indexed": false,
          "internalType": "uint256",
          "name": "id",
          "type": "uint256"
        },
        {
          "indexed": false,
          "internalType": "uint256",
          "name": "value",
          "type": "uint256"
        }
      ],
      "name": "TransferSingle",
      "type": "event"
    },
    {
      "anonymous": false,
      "inputs": [
        {
          "indexed": false,
          "internalType": "string",
          "name": "value",
          "type": "string"
        },
        {
          "indexed": true,
          "internalType": "uint256",
          "name": "id",
          "type": "uint256"
        }
      ],
      "name": "URI",
      "type": "event"
    },
    {
      "anonymous": false,
      "inputs": [
        {
          "indexed": false,
          "internalType": "uint256",
          "name": "tokenId",
          "type": "uint256"
        },
        {
          "indexed": false,
          "internalType": "address",
          "name": "creator",
          "type": "address"
        }
      ],
      "name": "tokenCreation",
      "type": "event"
    },
    {
      "inputs": [],
      "name": "CREATOR_MIN_DISTRIBUTION_RATE",
      "outputs": [
        {
          "internalType": "uint256",
          "name": "",
          "type": "uint256"
        }
      ],
      "stateMutability": "view",
      "type": "function"
    },
    {
      "inputs": [],
      "name": "DECIMAL",
      "outputs": [
        {
          "internalType": "uint256",
          "name": "",
          "type": "uint256"
        }
      ],
      "stateMutability": "view",
      "type": "function"
    },
    {
      "inputs": [],
      "name": "DEFAULT_ADMIN_ROLE",
      "outputs": [
        {
          "internalType": "bytes32",
          "name": "",
          "type": "bytes32"
        }
      ],
      "stateMutability": "view",
      "type": "function"
    },
    {
      "inputs": [],
      "name": "MINTER_ROLE",
      "outputs": [
        {
          "internalType": "bytes32",
          "name": "",
          "type": "bytes32"
        }
      ],
      "stateMutability": "view",
      "type": "function"
    },
    {
      "inputs": [],
      "name": "TOKEN_MAX_SUPPLY",
      "outputs": [
        {
          "internalType": "uint256",
          "name": "",
          "type": "uint256"
        }
      ],
      "stateMutability": "view",
      "type": "function"
    },
    {
      "inputs": [
        {
          "internalType": "address",
          "name": "account",
          "type": "address"
        },
        {
          "internalType": "uint256",
          "name": "id",
          "type": "uint256"
        }
      ],
      "name": "balanceOf",
      "outputs": [
        {
          "internalType": "uint256",
          "name": "",
          "type": "uint256"
        }
      ],
      "stateMutability": "view",
      "type": "function"
    },
    {
      "inputs": [
        {
          "internalType": "address[]",
          "name": "accounts",
          "type": "address[]"
        },
        {
          "internalType": "uint256[]",
          "name": "ids",
          "type": "uint256[]"
        }
      ],
      "name": "balanceOfBatch",
      "outputs": [
        {
          "internalType": "uint256[]",
          "name": "",
          "type": "uint256[]"
        }
      ],
      "stateMutability": "view",
      "type": "function"
    },
    {
      "inputs": [
        {
          "internalType": "uint256",
          "name": "id",
          "type": "uint256"
        }
      ],
      "name": "exists",
      "outputs": [
        {
          "internalType": "bool",
          "name": "",
          "type": "bool"
        }
      ],
      "stateMutability": "view",
      "type": "function"
    },
    {
      "inputs": [
        {
          "internalType": "uint256",
          "name": "tokenId",
          "type": "uint256"
        },
        {
          "internalType": "string",
          "name": "CID",
          "type": "string"
        },
        {
          "internalType": "string",
          "name": "title",
          "type": "string"
        },
        {
          "internalType": "string",
          "name": "authors",
          "type": "string"
        },
        {
          "internalType": "string",
          "name": "description",
          "type": "string"
        },
        {
          "internalType": "string",
          "name": "programme",
          "type": "string"
        },
        {
          "internalType": "string[]",
          "name": "category",
          "type": "string[]"
        }
      ],
      "name": "formatTokenURI",
      "outputs": [
        {
          "internalType": "string",
          "name": "",
          "type": "string"
        }
      ],
      "stateMutability": "pure",
      "type": "function"
    },
    {
      "inputs": [
        {
          "internalType": "uint256",
          "name": "tokenId",
          "type": "uint256"
        }
      ],
      "name": "getLengthContrib",
      "outputs": [
        {
          "internalType": "uint256",
          "name": "",
          "type": "uint256"
        }
      ],
      "stateMutability": "view",
      "type": "function"
    },
    {
      "inputs": [
        {
          "internalType": "bytes32",
          "name": "role",
          "type": "bytes32"
        }
      ],
      "name": "getRoleAdmin",
      "outputs": [
        {
          "internalType": "bytes32",
          "name": "",
          "type": "bytes32"
        }
      ],
      "stateMutability": "view",
      "type": "function"
    },
    {
      "inputs": [
        {
          "internalType": "uint256",
          "name": "tokenId",
          "type": "uint256"
        }
      ],
      "name": "getTokenCreator",
      "outputs": [
        {
          "internalType": "address",
          "name": "",
          "type": "address"
        }
      ],
      "stateMutability": "view",
      "type": "function"
    },
    {
      "inputs": [
        {
          "internalType": "uint256",
          "name": "tokenId",
          "type": "uint256"
        }
      ],
      "name": "getTokenIdReferences",
      "outputs": [
        {
          "internalType": "uint256[]",
          "name": "",
          "type": "uint256[]"
        }
      ],
      "stateMutability": "view",
      "type": "function"
    },
    {
      "inputs": [
        {
          "internalType": "uint256",
          "name": "tokenId",
          "type": "uint256"
        }
      ],
      "name": "getcontributions",
      "outputs": [
        {
          "internalType": "uint256[2][]",
          "name": "",
          "type": "uint256[2][]"
        }
      ],
      "stateMutability": "view",
      "type": "function"
    },
    {
      "inputs": [
        {
          "internalType": "bytes32",
          "name": "role",
          "type": "bytes32"
        },
        {
          "internalType": "address",
          "name": "account",
          "type": "address"
        }
      ],
      "name": "grantRole",
      "outputs": [],
      "stateMutability": "nonpayable",
      "type": "function"
    },
    {
      "inputs": [
        {
          "internalType": "bytes32",
          "name": "role",
          "type": "bytes32"
        },
        {
          "internalType": "address",
          "name": "account",
          "type": "address"
        }
      ],
      "name": "hasRole",
      "outputs": [
        {
          "internalType": "bool",
          "name": "",
          "type": "bool"
        }
      ],
      "stateMutability": "view",
      "type": "function"
    },
    {
      "inputs": [
        {
          "internalType": "address",
          "name": "account",
          "type": "address"
        },
        {
          "internalType": "address",
          "name": "operator",
          "type": "address"
        }
      ],
      "name": "isApprovedForAll",
      "outputs": [
        {
          "internalType": "bool",
          "name": "",
          "type": "bool"
        }
      ],
      "stateMutability": "view",
      "type": "function"
    },
    {
      "inputs": [],
      "name": "lastTokenId",
      "outputs": [
        {
          "internalType": "int256",
          "name": "",
          "type": "int256"
        }
      ],
      "stateMutability": "view",
      "type": "function"
    },
    {
      "inputs": [
        {
          "internalType": "address",
          "name": "account",
          "type": "address"
        },
        {
          "internalType": "string",
          "name": "tokenURI",
          "type": "string"
        },
        {
          "internalType": "uint256[]",
          "name": "references",
          "type": "uint256[]"
        },
        {
          "internalType": "bytes",
          "name": "data",
          "type": "bytes"
        }
      ],
      "name": "mint",
      "outputs": [
        {
          "internalType": "uint256",
          "name": "",
          "type": "uint256"
        }
      ],
      "stateMutability": "nonpayable",
      "type": "function"
    },
    {
      "inputs": [
        {
          "internalType": "bytes32",
          "name": "role",
          "type": "bytes32"
        },
        {
          "internalType": "address",
          "name": "callerConfirmation",
          "type": "address"
        }
      ],
      "name": "renounceRole",
      "outputs": [],
      "stateMutability": "nonpayable",
      "type": "function"
    },
    {
      "inputs": [
        {
          "internalType": "bytes32",
          "name": "role",
          "type": "bytes32"
        },
        {
          "internalType": "address",
          "name": "account",
          "type": "address"
        }
      ],
      "name": "revokeRole",
      "outputs": [],
      "stateMutability": "nonpayable",
      "type": "function"
    },
    {
      "inputs": [
        {
          "internalType": "address",
          "name": "from",
          "type": "address"
        },
        {
          "internalType": "address",
          "name": "to",
          "type": "address"
        },
        {
          "internalType": "uint256[]",
          "name": "ids",
          "type": "uint256[]"
        },
        {
          "internalType": "uint256[]",
          "name": "values",
          "type": "uint256[]"
        },
        {
          "internalType": "bytes",
          "name": "data",
          "type": "bytes"
        }
      ],
      "name": "safeBatchTransferFrom",
      "outputs": [],
      "stateMutability": "nonpayable",
      "type": "function"
    },
    {
      "inputs": [
        {
          "internalType": "address",
          "name": "from",
          "type": "address"
        },
        {
          "internalType": "address",
          "name": "to",
          "type": "address"
        },
        {
          "internalType": "uint256",
          "name": "id",
          "type": "uint256"
        },
        {
          "internalType": "uint256",
          "name": "value",
          "type": "uint256"
        },
        {
          "internalType": "bytes",
          "name": "data",
          "type": "bytes"
        }
      ],
      "name": "safeTransferFrom",
      "outputs": [],
      "stateMutability": "nonpayable",
      "type": "function"
    },
    {
      "inputs": [
        {
          "internalType": "address",
          "name": "operator",
          "type": "address"
        },
        {
          "internalType": "bool",
          "name": "approved",
          "type": "bool"
        }
      ],
      "name": "setApprovalForAll",
      "outputs": [],
      "stateMutability": "nonpayable",
      "type": "function"
    },
    {
      "inputs": [
        {
          "internalType": "bytes4",
          "name": "interfaceId",
          "type": "bytes4"
        }
      ],
      "name": "supportsInterface",
      "outputs": [
        {
          "internalType": "bool",
          "name": "",
          "type": "bool"
        }
      ],
      "stateMutability": "view",
      "type": "function"
    },
    {
      "inputs": [],
      "name": "totalSupply",
      "outputs": [
        {
          "internalType": "uint256",
          "name": "",
          "type": "uint256"
        }
      ],
      "stateMutability": "view",
      "type": "function"
    },
    {
      "inputs": [
        {
          "internalType": "uint256",
          "name": "id",
          "type": "uint256"
        }
      ],
      "name": "totalSupply",
      "outputs": [
        {
          "internalType": "uint256",
          "name": "",
          "type": "uint256"
        }
      ],
      "stateMutability": "view",
      "type": "function"
    },
    {
      "inputs": [
        {
          "internalType": "uint256",
          "name": "tokenId",
          "type": "uint256"
        }
      ],
      "name": "uri",
      "outputs": [
        {
          "internalType": "string",
          "name": "",
          "type": "string"
        }
      ],
      "stateMutability": "view",
      "type": "function"
    }
  ],
  "bytecode": "0x60a0604052600060809081526003906200001a9082620001ca565b50600019600c553480156200002e57600080fd5b5060408051602081019091526000815262000049816200005e565b506200005760003362000070565b5062000296565b60026200006c8282620001ca565b5050565b60008281526005602090815260408083206001600160a01b038516845290915281205460ff16620001195760008381526005602090815260408083206001600160a01b03861684529091529020805460ff19166001179055620000d03390565b6001600160a01b0316826001600160a01b0316847f2f8788117e7eff1d82e926ec794901d17c78024a50270940304540a733656f0d60405160405180910390a45060016200011d565b5060005b92915050565b634e487b7160e01b600052604160045260246000fd5b600181811c908216806200014e57607f821691505b6020821081036200016f57634e487b7160e01b600052602260045260246000fd5b50919050565b601f821115620001c5576000816000526020600020601f850160051c81016020861015620001a05750805b601f850160051c820191505b81811015620001c157828155600101620001ac565b5050505b505050565b81516001600160401b03811115620001e657620001e662000123565b620001fe81620001f7845462000139565b8462000175565b602080601f8311600181146200023657600084156200021d5750858301515b600019600386901b1c1916600185901b178555620001c1565b600085815260208120601f198616915b82811015620002675788860151825594840194600190910190840162000246565b5085821015620002865787850151600019600388901b60f8161c191681555b5050505050600190811b01905550565b61352980620002a66000396000f3fe608060405234801561001057600080fd5b50600436106101c35760003560e01c80636ab55fd9116100f9578063bd85b03911610097578063dbcad3c711610071578063dbcad3c714610418578063e985e9c514610438578063f242432a1461044b578063f84ddf0b1461045e57600080fd5b8063bd85b039146103be578063d5391393146103de578063d547741f1461040557600080fd5b8063934689a9116100d3578063934689a91461034f578063a217fddf14610390578063a22cb46514610398578063b8451563146103ab57600080fd5b80636ab55fd9146103295780638ee2c4b81461033157806391d148541461033c57600080fd5b80632eb2c2d61161016657806338f066751161014057806338f06675146102c1578063415c5252146102e15780634e1273f4146102f45780634f558e791461030757600080fd5b80632eb2c2d6146102865780632f2ff15d1461029b57806336568abe146102ae57600080fd5b806318160ddd116101a257806318160ddd14610231578063248a9ca3146102395780632b18018a1461025c5780632c7f6ac61461027c57600080fd5b8062fdd58e146101c857806301ffc9a7146101ee5780630e89341c14610211575b600080fd5b6101db6101d63660046124f2565b610467565b6040519081526020015b60405180910390f35b6102016101fc366004612532565b61048f565b60405190151581526020016101e5565b61022461021f36600461254f565b61049a565b6040516101e591906125b8565b6007546101db565b6101db61024736600461254f565b60009081526005602052604090206001015490565b61026f61026a36600461254f565b6104a5565b6040516101e59190612607565b6101db62061a8081565b610299610294366004612761565b610507565b005b6102996102a936600461280a565b610573565b6102996102bc36600461280a565b61059e565b6101db6102cf36600461254f565b60009081526008602052604090205490565b6101db6102ef366004612836565b6105d6565b61026f6103023660046128ce565b610708565b61020161031536600461254f565b600090815260066020526040902054151590565b6101db600681565b6101db6305f5e10081565b61020161034a36600461280a565b6107d4565b61037861035d36600461254f565b6000908152600a60205260409020546001600160a01b031690565b6040516001600160a01b0390911681526020016101e5565b6101db600081565b6102996103a636600461298d565b6107ff565b6102246103b9366004612a48565b61080e565b6101db6103cc36600461254f565b60009081526006602052604090205490565b6101db7f9f2df0fed2c77648de5860a4cc508cd0818c85b8b8a1ab4ceeef8d981c8956a681565b61029961041336600461280a565b610b01565b61042b61042636600461254f565b610b26565b6040516101e59190612b47565b610201610446366004612bb0565b610c7b565b610299610459366004612bda565b610ca9565b6101db600c5481565b6000818152602081815260408083206001600160a01b03861684529091529020545b92915050565b600061048982610d08565b606061048982610d2d565b6000818152600960209081526040918290208054835181840281018401909452808452606093928301828280156104fb57602002820191906000526020600020905b8154815260200190600101908083116104e7575b50505050509050919050565b336001600160a01b038616811480159061052857506105268682610c7b565b155b1561055e5760405163711bec9160e11b81526001600160a01b038083166004830152871660248201526044015b60405180910390fd5b61056b8686868686610e0d565b505050505050565b60008281526005602052604090206001015461058e81610e74565b6105988383610e81565b50505050565b6001600160a01b03811633146105c75760405163334bd91960e11b815260040160405180910390fd5b6105d18282610f15565b505050565b60007f9f2df0fed2c77648de5860a4cc508cd0818c85b8b8a1ab4ceeef8d981c8956a661060281610e74565b600b5461061587826305f5e10087610f82565b61061f8187610fdf565b8451156106815760005b855181101561067f576000828152600960205260409020865187908390811061065457610654612c3e565b6020908102919091018101518254600181810185556000948552929093209092019190915501610629565b505b61068b818661103c565b6000818152600a6020526040812080546001600160a01b03191632179055600b8054600c819055600192906106c1908490612c6a565b9091555050604080518281523260208201527f01bda741afc1b7725bb8f034c29024f453762eb35af4a54bf21d3f2e2a1060d5910160405180910390a19695505050505050565b606081518351146107395781518351604051635b05999160e01b815260048101929092526024820152604401610555565b600083516001600160401b038111156107545761075461261a565b60405190808252806020026020018201604052801561077d578160200160208202803683370190505b50905060005b84518110156107cc576020808202860101516107a790602080840287010151610467565b8282815181106107b9576107b9612c3e565b6020908102919091010152600101610783565b509392505050565b60009182526005602090815260408084206001600160a01b0393909316845291905290205460ff1690565b61080a338383611215565b5050565b6060600061081b896112ab565b60405160200161082b9190612c7d565b604051602081830303815290604052905060008860405160200161084f9190612cbb565b60408051601f19818403018152828201909152600082526060602083015291506108788161133d565b6040805180820190915260048152636e616d6560e01b60208201529091506108a290829085611360565b90506108ec6040518060400160405280600b81526020016a3232b9b1b934b83a34b7b760a91b8152506040518060800160405280604f81526020016134a5604f9139839190611360565b60408051808201909152600a815269636f6e74656e7455524960b01b602082015290915061091c90829084611360565b90506109536040518060400160405280600a81526020016970726f7065727469657360b01b8152508261140690919063ffffffff16565b6040805180820190915260058152647469746c6560d81b602082015290915061097e9082908b611360565b604080518082019091526007815266617574686f727360c81b60208201529091506109ab9082908a611360565b60408051808201909152600b81526a3232b9b1b934b83a34b7b760a91b60208201529091506109dc90829089611360565b60408051808201909152600981526870726f6772616d6d6560b81b6020820152909150610a0b90829088611360565b9050610a406040518060400160405280600881526020016763617465676f727960c01b8152508261142a90919063ffffffff16565b905060005b8551811015610a8457610a7a868281518110610a6357610a63612c3e565b60200260200101518361144e90919063ffffffff16565b9150600101610a45565b50610a8e816114ed565b9050610a9981611510565b9050610aa481611510565b9050610ad28160200151604051602001610abe9190612cea565b604051602081830303815290604052611533565b604051602001610ae29190612d06565b6040516020818303038152906040529350505050979650505050505050565b600082815260056020526040902060010154610b1c81610e74565b6105988383610f15565b600081815260086020526040812054606091816001600160401b03811115610b5057610b5061261a565b604051908082528060200260200182016040528015610b8957816020015b610b766124b8565b815260200190600190039081610b6e5790505b50905060005b6000858152600860205260409020548110156107cc576000858152600860205260409020805482908110610bc557610bc5612c3e565b906000526020600020906002020160000154828281518110610be957610be9612c3e565b6020026020010151600060028110610c0357610c03612c3e565b602002018181525050600860008681526020019081526020016000208181548110610c3057610c30612c3e565b906000526020600020906002020160010154828281518110610c5457610c54612c3e565b6020026020010151600160028110610c6e57610c6e612c3e565b6020020152600101610b8f565b6001600160a01b03918216600090815260016020908152604080832093909416825291909152205460ff1690565b336001600160a01b0386168114801590610cca5750610cc88682610c7b565b155b15610cfb5760405163711bec9160e11b81526001600160a01b03808316600483015287166024820152604401610555565b61056b8686868686611559565b60006001600160e01b03198216637965db0b60e01b14806104895750610489826115e7565b600081815260046020526040812080546060929190610d4b90612d4b565b80601f0160208091040260200160405190810160405280929190818152602001828054610d7790612d4b565b8015610dc45780601f10610d9957610100808354040283529160200191610dc4565b820191906000526020600020905b815481529060010190602001808311610da757829003601f168201915b505050505090506000815111610de257610ddd83611637565b610e06565b600381604051602001610df6929190612d85565b6040516020818303038152906040525b9392505050565b6001600160a01b038416610e3757604051632bfa23e760e11b815260006004820152602401610555565b6001600160a01b038516610e6057604051626a0d4560e21b815260006004820152602401610555565b610e6d85858585856116c1565b5050505050565b610e7e8133611714565b50565b6000610e8d83836107d4565b610f0d5760008381526005602090815260408083206001600160a01b03861684529091529020805460ff19166001179055610ec53390565b6001600160a01b0316826001600160a01b0316847f2f8788117e7eff1d82e926ec794901d17c78024a50270940304540a733656f0d60405160405180910390a4506001610489565b506000610489565b6000610f2183836107d4565b15610f0d5760008381526005602090815260408083206001600160a01b0386168085529252808320805460ff1916905551339286917ff6391f5c32d9c69d2a47ea670b442974b53935d1edc7fd64eb21e047a839171b9190a4506001610489565b6001600160a01b038416610fac57604051632bfa23e760e11b815260006004820152602401610555565b6040805160018082526020820186905281830190815260608201859052608082019092529061056b6000878484876116c1565b6000828152600460205260409020610ff78282612e54565b50817f6bb7ff708619ba0610cba295a58592e0451dee2622938c8755667688daf3529b6110238461049a565b60405161103091906125b8565b60405180910390a25050565b604080518082019091526000808252602082015281516000036110a2575050604080518082018252828152620f42406020808301918252600094855260088152928420805460018082018355918652939094209151600290930290910191825551910155565b5060408051808201825283815262061a80602080830191825260008681526008825293842080546001818101835591865291852084516002909302019182559151910155825190915b81811015610e6d57600084828151811061110757611107612c3e565b6020026020010151905060005b60008281526008602052604090205481101561120b576040805180820182526000848152600860205291822080548291908590811061115557611155612c3e565b60009182526020918290206002909102015482520186620f424061117c62061a8082612f13565b600088815260086020526040902080548890811061119c5761119c612c3e565b9060005260206000209060020201600101546111b89190612f26565b6111c29190612f3d565b6111cc9190612f3d565b90526000898152600860209081526040822080546001818101835591845292829020845160029094020192835592015190820155919091019050611114565b50506001016110eb565b6001600160a01b03821661123e5760405162ced3e160e81b815260006004820152602401610555565b6001600160a01b03838116600081815260016020908152604080832094871680845294825291829020805460ff191686151590811790915591519182527f17307eab39ab6107e8899845ad3d59bd9653f200f220920489ca2b5937696c31910160405180910390a3505050565b606060006112b88361174d565b60010190506000816001600160401b038111156112d7576112d761261a565b6040519080825280601f01601f191660200182016040528015611301576020820181803683370190505b5090508181016020015b600019016f181899199a1a9b1b9c1cb0b131b232b360811b600a86061a8153600a850494508461130b57509392505050565b60408051808201909152600081526060602082015261048982607b60f81b611825565b6040805180820190915260008152606060208201526000611380836118c6565b90506000856000015112156113c6576020808601516040516113ac92600b60fa1b918891869101612f5f565b60408051601f1981840301815291905260208601526113f3565b6020808601516040516113dd928791859101612fdb565b60408051601f1981840301815291905260208601525b8451600160ff1b17855250929392505050565b604080518082019091526000815260606020820152610e068383607b60f81b611d0f565b604080518082019091526000815260606020820152610e068383605b60f81b611d0f565b604080518082019091526000815260606020820152600061146e836118c6565b90506000846000015112156114b25760208085015160405161149892600b60fa1b91859101613047565b60408051601f1981840301815291905260208501526114dd565b6020808501516040516114c79284910161309d565b60408051601f1981840301815291905260208501525b50508151600160ff1b1782525090565b60408051808201909152600081526060602082015261048982605d60f81b611db5565b60408051808201909152600081526060602082015261048982607d60f81b611db5565b606061048982604051806060016040528060408152602001613465604091396001611e20565b6001600160a01b03841661158357604051632bfa23e760e11b815260006004820152602401610555565b6001600160a01b0385166115ac57604051626a0d4560e21b815260006004820152602401610555565b604080516001808252602082018690528183019081526060820185905260808201909252906115de87878484876116c1565b50505050505050565b60006001600160e01b03198216636cdb3d1360e11b148061161857506001600160e01b031982166303a24d0760e21b145b8061048957506301ffc9a760e01b6001600160e01b0319831614610489565b60606002805461164690612d4b565b80601f016020809104026020016040519081016040528092919081815260200182805461167290612d4b565b80156104fb5780601f10611694576101008083540402835291602001916104fb565b820191906000526020600020905b8154815290600101906020018083116116a25750939695505050505050565b6116cd85858585611f9f565b6001600160a01b03841615610e6d578251339060010361170657602084810151908401516116ff838989858589611fab565b505061056b565b61056b8187878787876120cf565b61171e82826107d4565b61080a5760405163e2517d3f60e01b81526001600160a01b038216600482015260248101839052604401610555565b60008072184f03e93ff9f4daa797ed6e38ed64bf6a1f0160401b831061178c5772184f03e93ff9f4daa797ed6e38ed64bf6a1f0160401b830492506040015b6d04ee2d6d415b85acef810000000083106117b8576d04ee2d6d415b85acef8100000000830492506020015b662386f26fc1000083106117d657662386f26fc10000830492506010015b6305f5e10083106117ee576305f5e100830492506008015b612710831061180257612710830492506004015b60648310611814576064830492506002015b600a83106104895760010192915050565b6040805180820190915260008152606060208201528251600013156118795760208084015160405161185f92600b60fa1b918691016130e3565b60408051601f1981840301815291905260208401526118a4565b60208084015160405161188e92859101613116565b60408051601f1981840301815291905260208401525b82516001600160ff1b0316808452836118bc82613145565b9052509192915050565b6060816000805b8251811015611a96578251601760fa1b908490839081106118f0576118f0612c3e565b01602001516001600160f81b0319160361190d5760019150611a96565b8251601160f91b9084908390811061192757611927612c3e565b01602001516001600160f81b031916036119445760019150611a96565b8251602f60f81b9084908390811061195e5761195e612c3e565b01602001516001600160f81b0319160361197b5760019150611a96565b8251600960f81b9084908390811061199557611995612c3e565b01602001516001600160f81b031916036119b25760019150611a96565b8251600360fa1b908490839081106119cc576119cc612c3e565b01602001516001600160f81b031916036119e95760019150611a96565b8251600560f91b90849083908110611a0357611a03612c3e565b01602001516001600160f81b03191603611a205760019150611a96565b8251600d60f81b90849083908110611a3a57611a3a612c3e565b01602001516001600160f81b03191603611a575760019150611a96565b8251600160fb1b90849083908110611a7157611a71612c3e565b01602001516001600160f81b03191603611a8e5760019150611a96565b6001016118cd565b5080611aa457509192915050565b60005b8251811015611d07578251601760fa1b90849083908110611aca57611aca612c3e565b01602001516001600160f81b03191603611b055783604051602001611aef9190613164565b6040516020818303038152906040529350611cff565b8251601160f91b90849083908110611b1f57611b1f612c3e565b01602001516001600160f81b03191603611b445783604051602001611aef919061318a565b8251602f60f81b90849083908110611b5e57611b5e612c3e565b01602001516001600160f81b03191603611b835783604051602001611aef91906131b0565b8251600960f81b90849083908110611b9d57611b9d612c3e565b01602001516001600160f81b03191603611bc25783604051602001611aef91906131d6565b8251600360fa1b90849083908110611bdc57611bdc612c3e565b01602001516001600160f81b03191603611c015783604051602001611aef91906131fc565b8251600560f91b90849083908110611c1b57611c1b612c3e565b01602001516001600160f81b03191603611c405783604051602001611aef9190613222565b8251600d60f81b90849083908110611c5a57611c5a612c3e565b01602001516001600160f81b03191603611c7f5783604051602001611aef9190613248565b8251600160fb1b90849083908110611c9957611c99612c3e565b01602001516001600160f81b03191603611cbe5783604051602001611aef919061326e565b83838281518110611cd157611cd1612c3e565b602001015160f81c60f81b604051602001611ced929190613116565b60405160208183030381529060405293505b600101611aa7565b505050919050565b604080518082019091526000815260606020820152835160001315611d6557602080850151604051611d4b92600b60fa1b918791879101613294565b60408051601f198184030181529190526020850152611d92565b602080850151604051611d7c9286918691016132fb565b60408051601f1981840301815291905260208501525b83516001600160ff1b031680855284611daa82613145565b905250929392505050565b604080518082019091526000815260606020820152602080840151604051611ddf92859101613116565b60408051808303601f1901815291905260208401528251600160ff1b178084526001600160ff1b031615611e19578251836118bc82613359565b5090919050565b60608351600003611e405750604080516020810190915260008152610e06565b600082611e7157600385516004611e579190612f26565b611e62906002612c6a565b611e6c9190612f3d565b611e96565b600385516002611e819190612c6a565b611e8b9190612f3d565b611e96906004612f26565b90506000816001600160401b03811115611eb257611eb261261a565b6040519080825280601f01601f191660200182016040528015611edc576020820181803683370190505b50905060018501602082018788518901602081018051600082525b82841015611f52576003840193508351603f8160121c168701518653600186019550603f81600c1c168701518653600186019550603f8160061c168701518653600186019550603f8116870151865350600185019450611ef7565b905250508515611f9357600388510660018114611f765760028114611f8957611f91565b603d6001830353603d6002830353611f91565b603d60018303535b505b50909695505050505050565b610598848484846121b8565b6001600160a01b0384163b1561056b5760405163f23a6e6160e01b81526001600160a01b0385169063f23a6e6190611fef9089908990889088908890600401613376565b6020604051808303816000875af192505050801561202a575060408051601f3d908101601f19168201909252612027918101906133bb565b60015b612093573d808015612058576040519150601f19603f3d011682016040523d82523d6000602084013e61205d565b606091505b50805160000361208b57604051632bfa23e760e11b81526001600160a01b0386166004820152602401610555565b805160208201fd5b6001600160e01b0319811663f23a6e6160e01b146115de57604051632bfa23e760e11b81526001600160a01b0386166004820152602401610555565b6001600160a01b0384163b1561056b5760405163bc197c8160e01b81526001600160a01b0385169063bc197c819061211390899089908890889088906004016133d8565b6020604051808303816000875af192505050801561214e575060408051601f3d908101601f1916820190925261214b918101906133bb565b60015b61217c573d808015612058576040519150601f19603f3d011682016040523d82523d6000602084013e61205d565b6001600160e01b0319811663bc197c8160e01b146115de57604051632bfa23e760e11b81526001600160a01b0386166004820152602401610555565b6121c4848484846122a4565b6001600160a01b038416612244576000805b835181101561222a576020818102848101820151908601820151600090815260069092526040822080549192839261220f908490612c6a565b9091555061221f90508184612c6a565b9250506001016121d6565b50806007600082825461223d9190612c6a565b9091555050505b6001600160a01b038316610598576000805b8351811015612293576020818102848101820151908601820151600090815260069092526040909120805482900390559190910190600101612256565b506007805491909103905550505050565b80518251146122d35781518151604051635b05999160e01b815260048101929092526024820152604401610555565b3360005b83518110156123d9576020818102858101820151908501909101516001600160a01b0388161561238a576000828152602081815260408083206001600160a01b038c16845290915290205481811015612363576040516303dee4c560e01b81526001600160a01b038a166004820152602481018290526044810183905260648101849052608401610555565b6000838152602081815260408083206001600160a01b038d16845290915290209082900390555b6001600160a01b038716156123cf576000828152602081815260408083206001600160a01b038b168452909152812080548392906123c9908490612c6a565b90915550505b50506001016122d7565b50825160010361245a5760208301516000906020840151909150856001600160a01b0316876001600160a01b0316846001600160a01b03167fc3d58168c5ae7397731d063d5bbf3d657854427343f4c083240f7aacaa2d0f62858560405161244b929190918252602082015260400190565b60405180910390a45050610e6d565b836001600160a01b0316856001600160a01b0316826001600160a01b03167f4a39dc06d4c0dbc64b70af90fd698a233a518aa5d07e595d983b8c0526c8f7fb86866040516124a9929190613436565b60405180910390a45050505050565b60405180604001604052806002906020820280368337509192915050565b80356001600160a01b03811681146124ed57600080fd5b919050565b6000806040838503121561250557600080fd5b61250e836124d6565b946020939093013593505050565b6001600160e01b031981168114610e7e57600080fd5b60006020828403121561254457600080fd5b8135610e068161251c565b60006020828403121561256157600080fd5b5035919050565b60005b8381101561258357818101518382015260200161256b565b50506000910152565b600081518084526125a4816020860160208601612568565b601f01601f19169290920160200192915050565b602081526000610e06602083018461258c565b60008151808452602080850194506020840160005b838110156125fc578151875295820195908201906001016125e0565b509495945050505050565b602081526000610e0660208301846125cb565b634e487b7160e01b600052604160045260246000fd5b604051601f8201601f191681016001600160401b03811182821017156126585761265861261a565b604052919050565b60006001600160401b038211156126795761267961261a565b5060051b60200190565b600082601f83011261269457600080fd5b813560206126a96126a483612660565b612630565b8083825260208201915060208460051b8701019350868411156126cb57600080fd5b602086015b848110156126e757803583529183019183016126d0565b509695505050505050565b600082601f83011261270357600080fd5b81356001600160401b0381111561271c5761271c61261a565b61272f601f8201601f1916602001612630565b81815284602083860101111561274457600080fd5b816020850160208301376000918101602001919091529392505050565b600080600080600060a0868803121561277957600080fd5b612782866124d6565b9450612790602087016124d6565b935060408601356001600160401b03808211156127ac57600080fd5b6127b889838a01612683565b945060608801359150808211156127ce57600080fd5b6127da89838a01612683565b935060808801359150808211156127f057600080fd5b506127fd888289016126f2565b9150509295509295909350565b6000806040838503121561281d57600080fd5b8235915061282d602084016124d6565b90509250929050565b6000806000806080858703121561284c57600080fd5b612855856124d6565b935060208501356001600160401b038082111561287157600080fd5b61287d888389016126f2565b9450604087013591508082111561289357600080fd5b61289f88838901612683565b935060608701359150808211156128b557600080fd5b506128c2878288016126f2565b91505092959194509250565b600080604083850312156128e157600080fd5b82356001600160401b03808211156128f857600080fd5b818501915085601f83011261290c57600080fd5b8135602061291c6126a483612660565b82815260059290921b8401810191818101908984111561293b57600080fd5b948201945b8386101561296057612951866124d6565b82529482019490820190612940565b9650508601359250508082111561297657600080fd5b5061298385828601612683565b9150509250929050565b600080604083850312156129a057600080fd5b6129a9836124d6565b9150602083013580151581146129be57600080fd5b809150509250929050565b600082601f8301126129da57600080fd5b813560206129ea6126a483612660565b82815260059290921b84018101918181019086841115612a0957600080fd5b8286015b848110156126e75780356001600160401b03811115612a2c5760008081fd5b612a3a8986838b01016126f2565b845250918301918301612a0d565b600080600080600080600060e0888a031215612a6357600080fd5b8735965060208801356001600160401b0380821115612a8157600080fd5b612a8d8b838c016126f2565b975060408a0135915080821115612aa357600080fd5b612aaf8b838c016126f2565b965060608a0135915080821115612ac557600080fd5b612ad18b838c016126f2565b955060808a0135915080821115612ae757600080fd5b612af38b838c016126f2565b945060a08a0135915080821115612b0957600080fd5b612b158b838c016126f2565b935060c08a0135915080821115612b2b57600080fd5b50612b388a828b016129c9565b91505092959891949750929550565b60208082528251828201819052600091906040908185019086840185805b83811015612ba257825185835b6002811015612b8f57825182529189019190890190600101612b72565b5050509385019391860191600101612b65565b509298975050505050505050565b60008060408385031215612bc357600080fd5b612bcc836124d6565b915061282d602084016124d6565b600080600080600060a08688031215612bf257600080fd5b612bfb866124d6565b9450612c09602087016124d6565b9350604086013592506060860135915060808601356001600160401b03811115612c3257600080fd5b6127fd888289016126f2565b634e487b7160e01b600052603260045260246000fd5b634e487b7160e01b600052601160045260246000fd5b8082018082111561048957610489612c54565b750249a2a25903237b1bab6b2b73a102a37b5b2b71011960551b815260008251612cae816016850160208701612568565b9190910160160192915050565b66697066733a2f2f60c81b815260008251612cdd816007850160208701612568565b9190910160070192915050565b60008251612cfc818460208701612568565b9190910192915050565b7f646174613a6170706c69636174696f6e2f6a736f6e3b6261736536342c000000815260008251612d3e81601d850160208701612568565b91909101601d0192915050565b600181811c90821680612d5f57607f821691505b602082108103612d7f57634e487b7160e01b600052602260045260246000fd5b50919050565b6000808454612d9381612d4b565b60018281168015612dab5760018114612dc057612def565b60ff1984168752821515830287019450612def565b8860005260208060002060005b85811015612de65781548a820152908401908201612dcd565b50505082870194505b505050508351612e03818360208801612568565b01949350505050565b601f8211156105d1576000816000526020600020601f850160051c81016020861015612e355750805b601f850160051c820191505b8181101561056b57828155600101612e41565b81516001600160401b03811115612e6d57612e6d61261a565b612e8181612e7b8454612d4b565b84612e0c565b602080601f831160018114612eb65760008415612e9e5750858301515b600019600386901b1c1916600185901b17855561056b565b600085815260208120601f198616915b82811015612ee557888601518255948401946001909101908401612ec6565b5085821015612f035787850151600019600388901b60f8161c191681555b5050505050600190811b01905550565b8181038181111561048957610489612c54565b808202811582820484141761048957610489612c54565b600082612f5a57634e487b7160e01b600052601260045260246000fd5b500490565b60008551612f71818460208a01612568565b6001600160f81b03198616908301908152601160f91b600182018190528551612fa1816002850160208a01612568565b63111d101160e11b600293909101928301528451612fc6816006850160208901612568565b60069201918201526007019695505050505050565b60008451612fed818460208901612568565b601160f91b908301818152855190919061300e816001850160208a01612568565b63111d101160e11b600193909101928301528451613033816005850160208901612568565b600592019182015260060195945050505050565b60008451613059818460208901612568565b6001600160f81b03198516908301908152601160f91b600182018190528451613089816002850160208901612568565b600292019182015260030195945050505050565b600083516130af818460208801612568565b601160f91b90830181815284519091906130d0816001850160208901612568565b6001920191820152600201949350505050565b600084516130f5818460208901612568565b6001600160f81b031994851692019182525091166001820152600201919050565b60008351613128818460208801612568565b6001600160f81b0319939093169190920190815260010192915050565b60006001600160ff1b01820161315d5761315d612c54565b5060010190565b60008251613176818460208701612568565b61171760f21b920191825250600201919050565b6000825161319c818460208701612568565b612e1160f11b920191825250600201919050565b600082516131c2818460208701612568565b615c2f60f01b920191825250600201919050565b600082516131e8818460208701612568565b61171d60f21b920191825250600201919050565b6000825161320e818460208701612568565b612e3360f11b920191825250600201919050565b60008251613234818460208701612568565b612e3760f11b920191825250600201919050565b6000825161325a818460208701612568565b612e3960f11b920191825250600201919050565b60008251613280818460208701612568565b612e3160f11b920191825250600201919050565b600085516132a6818460208a01612568565b6001600160f81b0319868116918401918252601160f91b600183015285516132d5816002850160208a01612568565b620111d160ed1b6002939091019283015293909316600584015250506006019392505050565b6000845161330d818460208901612568565b601160f91b908301908152845161332b816001840160208901612568565b620111d160ed1b600192909101918201526001600160f81b0319939093166004840152505060050192915050565b6000600160ff1b820161336e5761336e612c54565b506000190190565b6001600160a01b03868116825285166020820152604081018490526060810183905260a0608082018190526000906133b09083018461258c565b979650505050505050565b6000602082840312156133cd57600080fd5b8151610e068161251c565b6001600160a01b0386811682528516602082015260a060408201819052600090613404908301866125cb565b828103606084015261341681866125cb565b9050828103608084015261342a818561258c565b98975050505050505050565b60408152600061344960408301856125cb565b828103602084015261345b81856125cb565b9594505050505056fe4142434445464748494a4b4c4d4e4f505152535455565758595a6162636465666768696a6b6c6d6e6f707172737475767778797a303132333435363738392b2f546f6b656e20726570726573656e74696e67206120636f6e74656e742070726f706f7365642062792061206d656d626572206f66207468652049344b54206e6574776f726b20636f6d6d756e697479a2646970667358221220bf3b792e183608bf70f91a259d249287c020c8e346324f443d1a8b37ae0736ca64736f6c63430008180033",
  "linkReferences": {},
  "deployedLinkReferences": {}
}